:020000040000FA
:1000000060020020ED020000F1020000F302000097
:10001000F5020000F7020000F902000000000000F5
:10002000000000000000000000000000FB020000D3
:10003000FD02000000000000FF02000001030000BC
:10004000030300000503000007030000090300008C
:100050000B0300000D0300000F030000110300005C
:10006000130300001503000017030000190300002C
:100070001B0300001D0300001F03000021030000FC
:1000800023030000250300002703000029030000CC
:100090002B0300002D0300002F030000310300009C
:1000A000330300003503000037030000390300006C
:1000B0003B0300003D0300003F030000410300003C
:1000C000430300004503000047030000490300000C
:1000D0004B0300004D0300004F03000051030000DC
:1000E0005303000055030000000000005703000008
:1000F000590300005B0300005D0300005F03000084
:100100006103000063030000650300006703000053
:100110000000000000000000690300006B03000005
:100120006D0300006F030000710300007303000003
:100130007503000077030000790300007B030000D3
:1001400000000000000000000000000000000000AF
:100150007D0300007F030000810300008303000093
:10016000000000000000000000000000000000008F
:10017000000000000000000000000000000000007F
:10018000000000000000000000000000000000006F
:10019000000000000000000000000000000000005F
:1001A000000000000000000000000000000000004F
:1001B0008503000087030000890300008B03000013
:1001C0008D0300008F0300009103000093030000E3
:1001D0009503000097030000990300009B030000B3
:1001E0009D0300009F030000A10300000000000029
:1001F00000000000A3030000A5030000A703000007
:10020000A9030000AB030000000000000000000094
:10021000AD030000AF030000B1030000B303000012
:10022000B5030000B7030000B9030000BB030000E2
:10023000BD030000BF030000C1030000C3030000B2
:10024000C5030000C7030000C9030000CB03000082
:10025000CD030000CF030000D1030000D303000052
:10026000D5030000D7030000D903000000F002F816
:1002700000F02CF80AA090E8000C82448344AAF114
:100280000107DA4501D100F021F8AFF2090EBAE812
:100290000F0013F0010F18BFFB1A43F001031847BA
:1002A00064160000741600000023002400250026B8
:1002B000103A28BF78C1FBD8520728BF30C148BFC9
:1002C0000B6070471FB51FBD10B510BD00F04BFE91
:1002D0001146FFF7F7FF00F0A5F900F069FE03B43F
:1002E000FFF7F2FF03BC00F06DFE00003E48004740
:1002F000FEE7FEE7FEE7FEE7FEE7FEE7FEE7FEE7D6
:10030000FEE7FEE7FEE7FEE7FEE7FEE7FEE7FEE7C5
:10031000FEE7FEE7FEE7FEE7FEE7FEE7FEE7FEE7B5
:10032000FEE7FEE7FEE7FEE7FEE7FEE7FEE7FEE7A5
:10033000FEE7FEE7FEE7FEE7FEE7FEE7FEE7FEE795
:10034000FEE7FEE7FEE7FEE7FEE7FEE7FEE7FEE785
:10035000FEE7FEE7FEE7FEE7FEE7FEE7FEE7FEE775
:10036000FEE7FEE7FEE7FEE7FEE7FEE7FEE7FEE765
:10037000FEE7FEE7FEE7FEE7FEE7FEE7FEE7FEE755
:10038000FEE7FEE7FEE7FEE7FEE7FEE7FEE7FEE745
:10039000FEE7FEE7FEE7FEE7FEE7FEE7FEE7FEE735
:1003A000FEE7FEE7FEE7FEE7FEE7FEE7FEE7FEE725
:1003B000FEE7FEE7FEE7FEE7FEE7FEE7FEE7FEE715
:1003C000FEE7FEE7FEE7FEE7FEE7FEE7FEE7FEE705
:1003D000FEE7FEE7FEE7FEE7FEE70000034804490C
:1003E000024A044B704700006D02000060000020CC
:1003F000600200206000002010B5044680480068BC
:1004000020F001007F49C1F8FC030846D0F8FC0346
:1004100020F00200C1F8FC034FF0010000F039F9B0
:100420007848D0F8FC0340F00400754908604FF0AC
:10043000010000F02EF9744804604FF0010000F054
:1004400028F97048D0F8FC0320F004006C490860DB
:100450004FF0010000F01DF910BD10B5042000F0B0
:10046000B7F9012000F0B4F96548001D006840F0BC
:1004700007006349091D0860FF206349091D0860E2
:100480000C20FFF7B9FF3820FFF7B6FF0120FFF778
:10049000B3FF10BD10B504465948006840F0010094
:1004A0005849C1F8FC030846D0F8FC0320F00200CC
:1004B000C1F8FC034FF0010000F0EBF85148D0F810
:1004C000FC0340F004004E4908604FF0010000F0CA
:1004D000E0F84D4804604FF0010000F0DAF84948B8
:1004E000D0F8FC0320F00400454908604FF00100FB
:1004F00000F0CFF810BD10B50120FFF77DFF10BD53
:1005000070B506460C4636B1012E06D0022E08D034
:10051000032E0ED109E025460BE004F14000C5B2E0
:1005200007E004F11000C5B203E004F15000C5B2C9
:1005300000BF00BF45F08000FFF75EFF70BD70B5E3
:100540000446002504E0605DFFF7A4FF681CC5B207
:10055000605D0028F7D170BD70B505460E461446A3
:1005600031462846FFF7CCFF2046FFF7E8FF70BD75
:100570002DE9F0430346164600254BB94FF03008ED
:1005800028466D1C01F8008000204855BDE8F08326
:1005900017E093FBF6FC06FB1C3C1FFA8CF00928C5
:1005A00002DD00F1570C01E000F1300C0CF0FF0906
:1005B000AC466D1C01F80C9093FBF6FC1FFA8CF313
:1005C00000BF002BE5D1002048550022681EC4B2B0
:1005D00007E08F5C085D88540F55501CC2B2601E46
:1005E000C4B2A242F5DB0020D0E71FB504460A22C0
:1005F00069462046FFF7BCFF6846FFF7A0FF1FBD16
:10060000FC43024000400240FC53004010B500F0A3
:100610004FF800F08BF84FF4165000F084FBFFF712
:100620001CFF10BD10B5FFF7F1FF0A20FFF7DDFF3B
:10063000002010BD08B51D48009002E00098401E43
:10064000009000980028F9D108BD4FF0E020006923
:1006500020F001004FF0E02108616FF07F40486119
:10066000002088610846006940F005000861704775
:1006700043F67F604FF0E02148610020886100BFB1
:100680004FF0E020006900F48030B0F5803FF7D1F2
:100690007047002107E0002200E0521C40F66C4346
:1006A0009A42FAD3491C8142F5D370477963180006
:1006B00008B54248006840F02000404908600846FC
:1006C000006800903E483F490860081D006840F0FF
:1006D0000100091D0860081D006800F00100091DE7
:1006E0000860081D006820F00F00091D08603648EA
:1006F000006800F001003449086033482038006881
:1007000000F001003049203908602E481038006898
:1007100040F001002B49103908602A48001F00688A
:1007200040F001002749091F086008BD08B52348AB
:10073000006840F0200021490860084600680090E9
:100740001F4820490860081D006840F01000091D7E
:100750000860081D006820F01000091D0860081DD1
:10076000006820F47020091D08601748006820F018
:1007700010001549086014482038006820F0100067
:100780001149203908600F481038006840F0100007
:100790000C49103908600B48001F006840F0100039
:1007A0000849091F086008BD0848006800F00100FA
:1007B00070470648006800F01000704708E60F40D8
:1007C0004B434F4C2055024020540240FC53024002
:1007D00008B5F8490968012282401143F54A1160C1
:1007E00011460968C9B20091062876D2DFE800F008
:1007F0000316293C4F62F049F04A1160FF21121D97
:100800001160EE4A121F11600021EC4A083211609B
:10081000EB4A1160E94A0C3211605EE0E649E94AB0
:100820001160FF21121D1160E64A121F11600021A4
:10083000E44A08321160E44A1160E24A0C32116065
:100840004BE0DD49E14A1160FF21121D1160DF4AD2
:10085000121F11600021DD4A08321160DC4A11606C
:10086000DA4A0C32116038E0D349DA4A1160FF21CC
:10087000121D1160D74A121F11600021D54A08329B
:100880001160D54A1160D34A0C32116025E0CA4983
:10089000D24A11603F21121D1160D04A121F11600F
:1008A0000021CE4A08321160CD4A1160CB4A0C3289
:1008B000116012E0C049CB4A11601F21121D116066
:1008C000C84A121F11600021C64A08321160C64A88
:1008D0001160C44A0C32116000BF00BF08BD10B5E2
:1008E000062869D2DFE800F00314253647583AB1EC
:1008F000B34B203B1B680B43B14C203C236006E00C
:10090000AF4B203B1B688B43AD4C203C236000BFAA
:100910003AB1AD4B203B1B680B43AB4C203C2360F2
:1009200006E0A94B203B1B688B43A74C203C23606F
:1009300000BF3AB1A64B203B1B680B43A44C203CA4
:10094000236006E0A24B203B1B688B43A04C203C5D
:10095000236000BF3AB1A04B203B1B680B439E4C69
:10096000203C236006E09C4B203B1B688B439A4C49
:10097000203C236000BF3AB1994B203B1B680B43DE
:10098000974C203C236006E0954B203B1B688B4333
:10099000934C203C236000BF3AB1934B203B1B6833
:1009A0000B43914C203C236006E08F4B203B1B689F
:1009B0008B438D4C203C236010BD10B5062869D2B6
:1009C000DFE800F00314253647583AB17B4B103B63
:1009D0001B680B43794C103C236006E0774B103BBF
:1009E0001B688B43754C103C236000BF3AB1754BBC
:1009F000103B1B680B43734C103C236006E0714BAB
:100A0000103B1B688B436F4C103C236000BF3AB116
:100A10006E4B103B1B680B436C4C103C236006E094
:100A20006A4B103B1B688B43684C103C236000BF33
:100A30003AB1684B103B1B680B43664C103C23607B
:100A400006E0644B103B1B688B43624C103C2360F8
:100A500000BF3AB1614B103B1B680B435F4C103C2D
:100A6000236006E05D4B103B1B688B435B4C103CE6
:100A7000236000BF3AB15B4B103B1B680B43594CE2
:100A8000103C236006E0574B103B1B688B43554CD2
:100A9000103C236010BD10B5062869D2DFE800F0D5
:100AA0000314253647583AB1444B0C3B1B680B43A3
:100AB000424C0C3C236006E0404B0C3B1B688B43D4
:100AC0003E4C0C3C236000BF3AB13E4B0C3B1B68D4
:100AD0000B433C4C0C3C236006E03A4B0C3B1B6840
:100AE0008B43384C0C3C236000BF3AB1374B0C3B76
:100AF0001B680B43354C0C3C236006E0334B0C3B2E
:100B00001B688B43314C0C3C236000BF3AB1314B26
:100B10000C3B1B680B432F4C0C3C236006E02D4B19
:100B20000C3B1B688B432B4C0C3C236000BF3AB141
:100B30002A4B0C3B1B680B43284C0C3C236006E003
:100B4000264B0C3B1B688B43244C0C3C236000BFA2
:100B50003AB1244B0C3B1B680B43224C0C3C2360EA
:100B600006E0204B0C3B1B688B431E4C0C3C236067
:100B700010BD0246062A48D2DFE802F003080D1233
:100B800017421A48006800EA0100704718480068D8
:100B900000EA0100F9E71748006800EA0100F4E7FD
:100BA0001548006800EA0100EFE71448006800EA11
:100BB0000100EAE708E60F404B434F4C2045004058
:100BC0002044004020550040205400402065004053
:100BD0002064004020750040207400402045024001
:100BE000204402402055024020540240FC43004073
:100BF000FC530040FC630040FC730040FC43024097
:100C00000348006800EA0100BFE700BFBDE700003D
:100C1000FC5302402DE9F04F8BB00446C0480068F9
:100C200040F01000BE490860BD481038006840F030
:100C30000400BB49103908600020BA490860BA486E
:100C4000006840F03000B8490860B748FC380068D8
:100C500040F03000B449FC390860B34810300068F7
:100C600040F48810B04910310860B048006840F086
:100C70002000AE4908600020AD4908630846006BBB
:100C800010F0200F01D1102000E0082082460AFB5E
:100C900004F0A849B1FBF0F01FFA80F9484600F0D3
:100CA000CBFB05460E460AFB04F000F0C5FB0746E9
:100CB0000022A14B00F0D4FB02460B46CDE9000117
:100CC00000209E4900F060FA2A463346CDE9020131
:100CD00000F0C4FC00229A4BCDE9040100F0C0FBF7
:100CE0000022984BCDE9060100F0A6F9CDE90801F4
:100CF00000F070F983468E48C0F82490584600F002
:100D000097FD8B4988629048C06A40F060008E4928
:100D1000C8628748006B40F2013108438449086388
:100D20000BB0BDE8F08F2DE9F04F8BB004467C4846
:100D3000006840F008007A49086079481038006877
:100D400040F0040076491039086000BF7F48006811
:100D500010F0040FFAD00020754938390860724845
:100D6000006840F03000704908607048203000682A
:100D700040F0C0006D49203108606B4810300068B9
:100D800040F088506849103108606848006840F0B9
:100D900080006649086000206B4908630846006BC4
:100DA00010F0200F01D1102000E0082082460AFB3D
:100DB00004F06049B1FBF0F01FFA80F9484600F0FA
:100DC0003BFB05460E460AFB04F000F035FB0746E8
:100DD0000022594B00F044FB02460B46CDE90001CE
:100DE0000020564900F0D0F92A463346CDE90201E9
:100DF00000F034FC0022524BCDE9040100F030FB3E
:100E00000022504BCDE9060100F016F9CDE90801AA
:100E100000F0E0F883464C48C0F82490584600F0B3
:100E200007FD494988620846C06A40F07000C86200
:100E30000846006B40F201310843434908630BB098
:100E4000BDE8F08F78B94249896B41F01001404A02
:100E500091634049096841F020014FF0E022C2F857
:100E6000001162B634E001280FD13B49896B41F093
:100E70001001394A91633749096841F040014FF048
:100E8000E022C2F8001162B622E003280FD12E49F9
:100E9000896B41F010012C4A91633049096841F097
:100EA00000614FF0E022C2F8041162B610E004289D
:100EB0000ED11F49896B41F010011D4A91632749EA
:100EC000096841F080514FF0E022C2F8041162B687
:100ED000704700BF1649896911F0200FFAD11449F3
:100EE0000860704700BF1249896911F0100FFAD1EC
:100EF0000F490968C8B2704700BF1349896911F0EA
:100F0000200FFAD110490860704700BF0E49896967
:100F100011F0100FFAD10C490968C8B270470000EF
:100F200018E60F40C80F01401C65004000640040F7
:100F3000000001400024F4000000F03F80846E4176
:100F4000000050400000E03F00F0004008EA0F4081
:100F500000C0004000E100E000D0004004E100E0FB
:100F6000704770477047754600F028F8AE46050098
:100F70006946534620F00700854618B020B5FFF7B4
:100F80002DFABDE820404FF000064FF000074FF06B
:100F900000084FF0000B21F00701AC46ACE8C00997
:100FA000ACE8C009ACE8C009ACE8C0098D467047A0
:100FB0000446AFF300802046FFF791F900487047E0
:100FC0000000002001491820ABBEFEE72600020009
:100FD0007047000021F00042A2F16052B2F5801F7C
:100FE00001F0004328BFD2F17F6C0BD95FEA001CEF
:100FF00043EAC20242EB507018BF704728BF20F08E
:1010000001007047B2F5801FBCBF184670474FEA19
:10101000410C1CF5001F02D2084600F06EBC70B5F2
:1010200000F0C8FA00000089FFF7F6BF4FF000405B
:10103000A0F580007047000010B591EA030F48BF8B
:1010400083F0004300F11283841A71EB030C05D284
:10105000121943EB0C03001B61EB0C01DFF824E1D8
:101060004FEA1154A4EB135C1EEA430F18BF9EEA2B
:10107000445F73D023EA0E03DCF1200E21EA045111
:1010800043F4801332D322FA0CFE10EB0E0023FA45
:101090000CFE41EB0E01CCF1200E03FA0EFE10EB1C
:1010A0000E0051F10001B1F5801FCCF1200E32D2BB
:1010B00001EB045112FA0EF2BDE8104058BF704720
:1010C000401C38BF5FEA420218BF7047002814BFB7
:1010D00020F0010041F100014FEA410313F5001F28
:1010E00038BF7047A1F1C04100F0B2BA012A43EB0A
:1010F0000302ACF1200CDCF11F0E32BF4FF0000EEA
:1011000023FA0CF310EB030041EB0451B4EB115F35
:10111000D0D0A1EB045101F5801149085FEA3000FD
:1011200001EB04510ED350F1000038BF12FA0EFE4D
:1011300008D1BDE81040C9E7401C38BF5FEA420251
:10114000CAD1C3E7BDE810404FEA410313F5001FC1
:1011500038BF7047A1F1C04100F07ABA9EEA445FFF
:1011600008D011EA5E0FBDE8104004BF01F0004155
:1011700000207047BDE8104070B500F01BFA00BFBA
:1011800064FBBE3E0000E0FF2DE9C04130B4DFF853
:10119000A0C23CEA111418BF3CEA131400F0EC8022
:1011A00081EA03051CEA111444EAD57418BF1CEA4D
:1011B000131500F0C780A4EB05044FF0004545EA85
:1011C000C12145EAC32341EA505143EA525304F195
:1011D0007F74994204F500344FEAC0204FEAC222DE
:1011E00008BF904200F09C804FEA13650FF2401652
:1011F000765D4FEA134506FB05F7C7F1807706FBDE
:1012000007F74FEAD737A7FB03687642C8F580385F
:10121000A7FB06CE38BFA8F1010807FB08E64FF090
:10122000000EA6FB028CE6FB03CEDCF1000CCEF137
:10123000004E38BFAEF1010EA6FB0C584FF0000770
:101240004FF00005E6FB0E87A1FB08C6A0FB07CE0A
:1012500016EB0E0645F10005E1FB076515F1E04EC2
:101260007EBFA4F580345FEA46066D4116F1800723
:1012700045F100054FEA17274FEA066647EA05677A
:10128000A6F1DE46B6F1805F4FEA15251FD9384634
:1012900024F0010C05EBC471BCF1FE6F01EB0C11E5
:1012A00002D8F0BCBDE8008124425CBF01F5801E7D
:1012B0009EEAC47F02D4F0BCBDE80081244238D449
:1012C000F0BCA1F1C041BDE8004100F0C1B94FEA56
:1012D000D22242EA43524FEAD323A7FB02864FEAC7
:1012E000D02040EA415007FB03661EEA0E0F4FEA8A
:1012F000D12105FB026658BFA6EB0056B6EB00569F
:101300004FEA520E4EEAC37E18EB0E0E56EB530E0A
:10131000BDD518EB02085E417F1C55F10005B6E70C
:101320004FF480154FF000074FF000064FF0000813
:10133000ADE7F0BC4FF0000001F1C04101F0004109
:10134000BDE8008111EA0C1F0CEA131500D00CE077
:1013500013EA0C1F00F025804FF00000F0BC81EA7A
:10136000030101F00041BDE80081F0BCBDE800418F
:1013700081EA030100F06CB9F0BCBDE8004170B532
:1013800000F018F9097EFC3E00F007B881EA03017D
:101390004FF0000001F00041704781EA030100F0C6
:1013A00057B9F0BCBDE800414FF00000214970473B
:1013B000FFFDFBF9F7F5F4F2F0EEEDEBE9E8E6E41A
:1013C000E3E1E0DEDDDBDAD8D7D5D4D3D1D0CFCDA1
:1013D000CCCBCAC8C7C6C5C4C2C1C0BFBEBDBCBBDA
:1013E000BAB9B8B7B6B5B4B3B2B1B0AFAEADACABD5
:1013F000AAA9A8A8A7A6A5A4A3A3A2A1A09F9F9EAF
:101400009D9C9C9B9A999998979796959594939360
:10141000929191908F8F8E8E8D8C8C8B8B8A8989F7
:10142000888887878685858484838382828181807A
:101430000000FF070000F87FB0FA80F310FA03F114
:101440000AD0C3F11D0303F580634FEA41504FEA10
:10145000035202EBD12170474FF0000070470000AB
:10146000DFF848C170B51CEA111E1EBF1CEA131537
:101470009EEA0C0F95EA0C0F00F06F8081EA0304DE
:1014800023EA4C134EEAD47E21EA4C1141F4801138
:1014900043F48013AE44A1FB024CA0FB0365AEF104
:1014A0007F7E361955EB0C05A1FB034C4CF1000374
:1014B000A0FB021C16EB0C06654153F10003094228
:1014C00018BF46F0010613F4007F0BD14FEA033139
:1014D0004FEA0530340341EA155140EA16506FF0E7
:1014E00003020AE04FEAC3214FEAC520F40241EAB1
:1014F000555140EA56506FF0020202EB2E4201EBCA
:10150000025585EACE710AD05FEA440C18BF24F078
:10151000004450F1000041F1000120EAD47040F293
:10152000FE7C624500D270BDA84214BF4FF08044DB
:101530004FF04044002E08BF0024BEF1806FA8BFCA
:10154000A1F1C041BDE8704080F282804FF0000000
:1015500001F1C04101F0004170479EEA0C0F0CEA16
:10156000131518BF95EA0C0F06D04FF0000081EA62
:10157000030E0EF0004170BD00F01CF88900013E22
:1015800000F007B800F009B84FEA430C5FEA5C5C72
:1015900008D081EA030100F05BB84FEA410C5FEA32
:1015A0005C5CF6D14FF00000014970470000FF0776
:1015B0000000F87F0EF1020E2EF0030E5EF8046BB1
:1015C000364205D4012A43EB030515F5001F12D856
:1015D000012841EB010C1CF5001F0CD80ED14FEA7D
:1015E000D17C15F5001F0CEB4C0C0CF1020C08BF64
:1015F0004CEBD37C04E04FF0080C01E04FEAD37CC5
:101600000CEB4C0526FA05F606F00706B6F1040CBD
:1016100006D20EEB860CBDE870404CF0010C604722
:10162000DFE80CF0090B02024FF000414FF0000020
:10163000A1F5002170BD19461046012851EB0104A7
:1016400018BFD4F5001484BF002001F0004170BD24
:101650000808A0F500114FEA3101704710B591EA72
:10166000030F48BF83F000433FF5EEAC841A71EBE3
:10167000030C07D212198CF0004C43EB0C03001B37
:1016800061EB0C01DFF8A4E14FEA1154A4EB135C09
:101690001EEA430F18BF9EEA445F00F0B08023EAC1
:1016A0006E03524221EA0451C3EB6E0338BF5B1E46
:1016B000DCF1200E25D322FA0CFE10EB0E0043FACB
:1016C0000CFE41EB0E01CCF1200E03FA0EFE10EBE6
:1016D0000E0051F10001CCF1200E29D412FA0EF2C5
:1016E00001EB0451BDE8104058BF7047401C1CBFBF
:1016F000B2F1004F704700280CBF491C20F00100D8
:10170000704712EB020E43EB030218BF4FF0010EBD
:101710004EEA4202ACF1200CDCF11E0E54D943FA21
:101720000CFE10EB0E0051F1FF31CCF11E0ED5D5A1
:101730000EF1010E12FA0EFE404141EB010101EBE8
:10174000445C5FEA5C5C10D910EBDE7001EB045185
:1017500038BFBEF1004FBDE8104018BF70470028E9
:101760000CBF491C20F00100704730D24FEAD42C46
:1017700011F5001124F400641BD0B1FA81F20B3A88
:10178000A41AA41ED2F12003914030FA03F31943A6
:10179000904001EBCC71002C01EB0451BDE81040EE
:1017A000A8BF704701F1C0414FF0000001F00041B7
:1017B0007047B0FA80F310FA03F100D110BDE41ABB
:1017C000173C4805C90AE4E701EB045110BD491074
:1017D00001EB0451BDE810404FEA300002E04FF049
:1017E000000170474A0008BF0042F8D0B2F5001F60
:1017F00028BF704701F000414FF0000070479EEA9B
:10180000445F07D011EA5E0FBDE8104004BF00211D
:1018100000207047BDE8104070B5FFF7CBFE00BF59
:1018200040DFF63E83F00041104670470000E0FFC5
:10183000C10DD1F19E0206DB4FEA002343F00043C5
:1018400023FA02F07047004207D54FEA4001B1F198
:10185000FE4F02D24FF00000704710B500F007F8BD
:1018600049922480002070476FEA200070470EF1F3
:10187000020E2EF0030E5EF8044B244204D44FEA0D
:101880004102B2F17F4F11D84FEA4003B3F17F4FCD
:101890000CD80ED14FEAD07CB2F17F4F0CEB4C0C40
:1018A0000CF1020C08BF4CEBD17C04E04FF0080CAB
:1018B00001E04FEAD17C0CEB4C0324FA03F404F072
:1018C0000704B4F1040C06D20EEB840CBDE8104002
:1018D0004CF0010C6047DFE80CF0070802024FF003
:1018E0000040A0F5800010BD0846420018BFD2F1AC
:1018F000807288BF00F0004010BDFF2141EAD05047
:10190000C0057047141900000000002060020000AC
:04191000A802000029
:04000005000002ED08
:00000001FF
